:100000000C945E000C9486000C9486000C94860080
:100010000C9486000C9486000C9486000C94A80224
:100020000C9486000C9486000C9486000C94CC03EF
:100030000C9486000C9486000C9486000C94860028
:100040000C9482030C9486000C9450030C942A03A5
:100050000C9486000C9486000C9486000C94860008
:100060000C9486000C948600000000080002010039
:100070000003040700000000000000000200000070
:1000800000250028002B0000000000240027002A83
:100090000004040404040404040202020202020331
:1000A000030303030301020408102040800102043B
:1000B00008102001020408102000880411241FBE2B
:1000C000CFEFD8E0DEBFCDBF11E0A0E0B1E0ECE7BC
:1000D000F1E102C005900D92A434B107D9F722E0F6
:1000E000A4E4B1E001C01D92A832B207E1F710E02C
:1000F000CEE5D0E004C02197FE010E94B608CD35C0
:10010000D107C9F70E94E5040C94BC080C940000C8
:1001100080E480937C0080917A00806480937A00F0
:1001200080917A0086FDFCCF8091780090917900D3
:10013000089590E0FC01EB55FF4F24918F569F4F9F
:10014000FC018491882399F090E0880F991FFC01AD
:10015000E957FF4FA591B491FC01E358FF4F8591FA
:1001600094918FB7F894EC91E22BEC938FBF0895A4
:10017000AF92BF92CF92DF92EF92FF920F931F93B5
:10018000CF93DF936C017B018B01040F151FEB01F3
:100190005E01AE18BF08C017D10759F06991D601AA
:1001A000ED91FC910190F081E02DC6010995892B1C
:1001B00079F7C501DF91CF911F910F91FF90EF90DB
:1001C000DF90CF90BF90AF900895FC01538D448D88
:1001D000252F30E0842F90E0821B930B541710F0F2
:1001E000CF96089501970895FC01918D828D9817FF
:1001F00061F0A28DAE0FBF2FB11D5D968C91928DD7
:100200009F5F9F73928F90E008958FEF9FEF089507
:10021000FC01918D828D981731F0828DE80FF11DD0
:10022000858D90E008958FEF9FEF0895FC01918DEB
:10023000228D892F90E0805C9F4F821B91098F73E4
:100240009927089583E691E00E94160121E0892B09
:1002500009F420E0822F089580E090E0892B29F0B6
:100260000E94220181110C9400000895FC01A48DCC
:10027000A80FB92FB11DA35ABF4F2C91848D90E0C8
:1002800001968F739927848FA689B7892C93A089AB
:10029000B1898C91837080648C93938D848D981335
:1002A00006C00288F389E02D80818F7D80830895C8
:1002B000EF92FF920F931F93CF93DF93EC0181E0B6
:1002C000888F9B8D8C8D98131AC0E889F98980815D
:1002D00085FF15C09FB7F894EE89FF896083E88990
:1002E000F98980818370806480839FBF81E090E082
:1002F000DF91CF911F910F91FF90EF900895F62E0F
:100300000B8D10E00F5F1F4F0F731127E02E8C8DA8
:100310008E110CC00FB607FCFACFE889F9898081ED
:1003200085FFF5CFCE010E943601F1CFEB8DEC0FAA
:10033000FD2FF11DE35AFF4FF0829FB7F8940B8F0A
:10034000EA89FB8980818062CFCFCF93DF93EC0174
:10035000888D8823B9F0AA89BB89E889F9898C91AD
:1003600085FD03C0808186FD0DC00FB607FCF7CF69
:100370008C9185FFF2CF808185FFEDCFCE010E9469
:100380003601E9CFDF91CF91089590E0FC01E85963
:10039000FF4F2491FC01EB55FF4F3491FC01EF56C8
:1003A000FF4FE491EE23C9F0222339F0233001F10D
:1003B000A8F4213019F1223029F1F0E0EE0FFF1FEF
:1003C000E358FF4FA591B4918FB7F894EC91611168
:1003D00026C030953E233C938FBF08952730A9F067
:1003E0002830C9F0243049F7809180008F7D03C008
:1003F000809180008F7780938000DFCF84B58F77E6
:1004000084BDDBCF84B58F7DFBCF8091B0008F772B
:100410008093B000D2CF8091B0008F7DF9CF3E2B7A
:10042000DACF3FB7F8948091460190914701A091AF
:100430004801B091490126B5A89B05C02F3F19F08E
:100440000196A11DB11D3FBFBA2FA92F982F882754
:10045000BC01CD01620F711D811D911D42E0660F2F
:10046000771F881F991F4A95D1F70895FC010190C5
:100470000020E9F73197AF01481B590BBC0183E617
:1004800091E00C94B8008F929F92AF92BF920F931D
:100490001F93CF93DF93CDB7DEB7A1970FB6F89434
:1004A000DEBF0FBECDBF19A2423008F44AE08E0174
:1004B0000F5D1F4F842E912CB12CA12CA50194010E
:1004C0000E948508E62FB901CA01EA30F4F4E05D24
:1004D000D801EE938D01232B242B252B79F790E067
:1004E00080E0109719F0CD010E943602A1960FB658
:1004F000F894DEBF0FBECDBFDF91CF911F910F915A
:10050000BF90AF909F908F900895E95CE1CFCF921C
:10051000DF92EF92FF92CF93DF936B017C016DE24C
:1005200083E691E00E945801EC0166277727CB0112
:100530006C197D098E099F094AE00E9443028C0FC5
:100540009D1FDF91CF91FF90EF90DF90CF900895A6
:100550001F920F920FB60F9211242F933F934F9338
:100560005F936F937F938F939F93AF93BF93EF931B
:10057000FF938091530190915401A0915501B09146
:100580005601892B8A2B8B2BD1F190914E01E09152
:100590004F01F09150018081892780838091530120
:1005A00090915401A0915501B09156011816190669
:1005B0001A061B069CF48091530190915401A0915E
:1005C0005501B09156010197A109B10980935301DA
:1005D00090935401A0935501B0935601FF91EF9170
:1005E000BF91AF919F918F917F916F915F914F914B
:1005F0003F912F910F900FBE0F901F9018958091F3
:100600000001ECE7F0E0E4919FEF90930001E1300E
:1006100051F030F0E23069F060E00E94C501DECFB9
:1006200010926E00F9CF90916F009D7F90936F00B4
:10063000F3CF909170009D7F9093700091E0909324
:10064000B0009091B100987F94609093B1001092A7
:10065000B300E2CF1F920F920FB60F9211242F9387
:100660003F934F935F936F937F938F939F93AF933A
:10067000BF93EF93FF9383E691E00E943601FF91D1
:10068000EF91BF91AF919F918F917F916F915F910A
:100690004F913F912F910F900FBE0F901F90189583
:1006A0001F920F920FB60F9211242F938F939F9347
:1006B000EF93FF93E0917301F09174018081E091D9
:1006C0007901F0917A0182FD1BC0908180917C01BB
:1006D0008F5F8F7320917D01821741F0E0917C0143
:1006E000F0E0ED59FE4F958F80937C01FF91EF91E3
:1006F0009F918F912F910F900FBE0F901F90189583
:100700008081F4CF1F920F920FB60F9211242F9376
:100710003F938F939F93AF93BF9380914A019091A2
:100720004B01A0914C01B0914D013091450123E066
:10073000230F2D3758F50196A11DB11D20934501BA
:1007400080934A0190934B01A0934C01B0934D01CB
:100750008091460190914701A0914801B0914901D3
:100760000196A11DB11D8093460190934701A0936E
:100770004801B0934901BF91AF919F918F913F91F3
:100780002F910F900FBE0F901F90189526E8230F02
:100790000296A11DB11DD2CF1F920F920FB60F92DC
:1007A00011242F933F934F935F936F937F938F9376
:1007B0009F93AF93BF93CF93DF93EF93FF9380917A
:1007C0004401C0912402D0E087FF24C0109285002C
:1007D00010928400809144018F5F80934401809146
:1007E0004401082E000C990B8C179D0724F480916E
:1007F00044018C30C4F1809184009091850004966E
:1008000080349C4908F47AC08091840090918500DE
:10081000049676C080914401082E000C990B8C1729
:100820009D07C4F6E09144018E2FEE0F990BFC0159
:10083000EE0FFF1FE80FF91FE050FE4F808186FF8B
:10084000C9CFE09144018E2FEE0F990BFC01EE0F02
:10085000FF1FE80FF91FE050FE4F808160E08F73AB
:100860000E94C501B7CF2091840030918500E091AE
:1008700044018E2FEE0F990BFC01EE0FFF1FE80FC6
:10088000F91FE050FE4F81819281820F931F909358
:10089000890080938800E09144018E2FEE0F990B20
:1008A000FC01EE0FFF1FE80FF91FE050FE4F8081A3
:1008B00086FF11C0E09144018E2FEE0F990BFC01D1
:1008C000EE0FFF1FE80FF91FE050FE4F808161E03F
:1008D0008F730E94C501FF91EF91DF91CF91BF917E
:1008E000AF919F918F917F916F915F914F913F91C8
:1008F0002F910F900FBE0F901F90189580E49CE9E8
:1009000090938900809388008FEF80934401E3CF18
:10091000109266011092650188EE93E0A0E0B0E0CD
:100920008093670190936801A0936901B0936A0175
:1009300087E091E0909364018093630185EC90E0FF
:100940009093700180936F0184EC90E0909372011A
:100950008093710180EC90E0909374018093730117
:1009600081EC90E0909376018093750182EC90E0A9
:10097000909378018093770186EC90E090937A01D0
:100980008093790110927C0110927D0110927E017A
:1009900010927F01809124028C3098F491E0980F9E
:1009A000909324028093250290E0FC01EE0FFF1F3C
:1009B000E80FF91FE050FE4F88EB9BE092838183A4
:1009C00008958FEF809325020895CF93DF93CDB7DD
:1009D000DEB729970FB6F894DEBF0FBECDBF78946F
:1009E00084B5826084BD84B5816084BD85B5826034
:1009F00085BD85B5816085BD80916E0081608093E5
:100A00006E0010928100809181008260809381004D
:100A1000809181008160809381008091800081605D
:100A2000809380008091B10084608093B1008091B8
:100A3000B00081608093B00080917A0084608093E0
:100A40007A0080917A00826080937A0080917A00A7
:100A5000816080937A0080917A00806880937A0028
:100A60001092C1008DE00E94990061E08DE00E942B
:100A7000C50102E010E12FB7F89480914A019091EE
:100A80004B01A0914C01B0914D012FBF883893418B
:100A9000A105B10508F43DC1F8E44F2EF8EE5F2E34
:100AA00066246394712CE9E92E2EE0E03E2E0DEAD7
:100AB00010E00E9488009093620180936101C090D1
:100AC0000101D09002010D2C000CEE08FF089C01E2
:100AD000990F440B550B2C193D094E095F09ACE3E6
:100AE000BFE00E947A0820915F0130916001032EDF
:100AF000000C440B550B2C193D094E095F090E944F
:100B00005B08DA01C9018C599F4FAF4FBF4F8983F2
:100B10009A83AB83BC8385E191E00E9436026091A9
:100B2000010170910201072E000C880B990B97FFB1
:100B300044C10E94870282E291E00E9436026091E5
:100B40005F0170916001072E000C880B990B97FFD5
:100B500038C10E94870282E391E00E94360285E359
:100B600091E00E9436026091610170916201072E4E
:100B7000000C880B990B97FF28C10E94870282E323
:100B800091E00E94360280910001883009F021C175
:100B9000ECE7F0E0F491F987F7FD02C288E00E94EB
:100BA0009900F985FF2321F02985223009F02BC215
:100BB00089809A80AB80BC80AA24BB2460E072E16B
:100BC0008AE790E0A50194010E945B082D833E8393
:100BD0004F83588769017A0181E0C81AD108E1087A
:100BE000F1089FEFC916D104E104F10409F00CF4F7
:100BF000AAC160E472E48FE090E0A50194010E9434
:100C00005B0869017A01A1E0CA1AD108E108F1087C
:100C1000B985B23009F04DC182E0EFEFCE16D104B4
:100C2000E104F10409F00CF46DC060E970ED83E0BB
:100C300090E0A50194010E945B0869017A01F1E04E
:100C4000CF1AD108E108F10883E02FEFC216D104D2
:100C5000E104F10409F00CF455C0C301B201A5018F
:100C600094010E945B0869017A0191E0C91AD108D8
:100C7000E108F10884E0AFEFCA16D104E104F10401
:100C800009F00CF43FC064E274EF80E090E0A5014D
:100C900094010E945B0869017A01B1E0CB1AD10886
:100CA000E108F10885E02FEFC216D104E104F10458
:100CB00049F140F162E17AE780E090E0A50194011A
:100CC0000E945B0869017A01E1E0CE1AD108E108CF
:100CD000F10886E0FFEFCF16D104E104F10491F0B2
:100CE00088F0CD80DE80EF80F8848AE0F594E79488
:100CF000D794C7948A95D1F781E0C81AD108E10842
:100D0000F10887E09091B100987F892B8093B10022
:100D100022C10E948800909362018093610120911A
:100D20005F01309160012817390724F49093600126
:100D300080935F0120910101309102018217930796
:100D400024F4909302018093010160E08DE00E9401
:100D5000C501E0917301F09174010083E0916F018E
:100D6000F09170011082E0917101F0917201108395
:100D700010927B01E0917701F091780186E0808309
:100D8000E0917501F0917601808180618083E0912E
:100D90007501F0917601808188608083E091750112
:100DA000F0917601808180688083E0917501F091F7
:100DB000760180818F7D80835ECE4AE00E9443026F
:100DC000BACE4AE00E944302C6CE4AE00E944302E5
:100DD000D6CE8F3F09F0E4C088E080930001ECE7B5
:100DE000F0E0F491F987FF3F09F4DAC0F13019F12E
:100DF00050F0F23009F43CC0F985F7FDD1C088E02D
:100E00000E949900D1CE14BC15BC84B5826084BD0B
:100E100085B5816085BDF1018491E82FF0E0EE0F8A
:100E2000FF1FE358FF4F85919491F80184918093BF
:100E300052011986B3CE10928000109281008091E9
:100E4000810088608093810080918100816080931F
:100E50008100F1018491E82FF0E0EE0FFF1FE358CD
:100E6000FF4F85919491F80184918093510196CE22
:100E70001092B0001092B1008091B0008260809317
:100E8000B0008091B10081608093B100F101849144
:100E9000E82FF0E0EE0FFF1FE358FF4F859194918C
:100EA0009093500180934F01F801849180934E01FB
:100EB00075CE8FEFC816D104E104F10409F00CF4EB
:100EC000A0C0C301B201A50194010E945B086901A1
:100ED0007A0191E0C91AD108E108F108A98584E0F6
:100EE000A111E1CE83E0BFEFCB16D104E104F10400
:100EF00071F16CF162E17AE780E090E0A501940184
:100F00000E945B0869017A01E1E0CE1AD108E1088C
:100F1000F10884E0FFEFCF16D104E104F104B9F049
:100F2000B0F0CD80DE80EF80F8849AE0F594E7940D
:100F3000D794C7949A95D1F721E0C21AD108E10855
:100F4000F10885E004C081E029852111DBCE95B54B
:100F5000987F892B85BD29813A81220F331FA4E117
:100F6000B0E00E94A70828EE33E040E050E00E9485
:100F70008508E985E13009F47CC0E23009F48BC0D2
:100F8000E1110EC0C7BC20935B0130935C0140931C
:100F90005D0150935E0180916E00826080936E00CF
:100FA0000E9411024B015C012AE0C22ED12CE12CDF
:100FB000F12C0E941102681979098A099B09683E7F
:100FC000734081059105A8F3F1E0CF1AD108E1083B
:100FD000F10828EE820E23E0921EA11CB11CC11460
:100FE000D104E104F10429F7E0E0F0E0EF2B09F48B
:100FF00060CD0E942201882309F455CD0E94000093
:1010000052CD82E0A1CF89809A80AB80BC80AA2497
:10101000BB2460E072E18AE790E0A50194010E94A0
:101020005B0869017A0181E0C81AD108E108F1087A
:10103000C114D10491E0E906F10464F491E0B985AA
:10104000B13009F088CF80918100887F892B80930F
:10105000810081CFC301B201A50194010E945B0808
:1010600069017A01A1E0CA1AD108E108F10893E008
:10107000E6CFD0928900C092880020935701309328
:1010800058014093590150935A0180916F0082603A
:1010900080936F0085CFC092B300209353013093AB
:1010A0005401409355015093560180917000826025
:1010B0008093700075CF052E97FB1EF400940E945C
:1010C000720857FD07D00E94850807FC03D04EF434
:1010D0000C94720850954095309521953F4F4F4F95
:1010E0005F4F089590958095709561957F4F8F4FD4
:1010F0009F4F08950E94A708A59F900DB49F900D43
:10110000A49F800D911D11240895A1E21A2EAA1BFF
:10111000BB1BFD010DC0AA1FBB1FEE1FFF1FA217A7
:10112000B307E407F50720F0A21BB30BE40BF50BA4
:10113000661F771F881F991F1A9469F7609570952D
:10114000809590959B01AC01BD01CF010895A29FB0
:10115000B001B39FC001A39F700D811D1124911D8B
:10116000B29F700D811D1124911D0895EE0FFF1F78
:0C1170000590F491E02D0994F894FFCF55
:10117C00FFFF03000000005801B800E500A50116B0
:10118C0001F400080153656E736F72204C6F773A4F
:10119C002000092053656E736F7220486967683AA6
:1011AC0020000D0A0053656E736F722056616C75CA
:0411BC00653A200070
:00000001FF
