:100000000C945D000C9485000C9485000C94850084
:100010000C9485000C9485000C9485000C9485004C
:100020000C9485000C9485000C9485000C94F802C7
:100030000C9485000C9485000C9485000C9485002C
:100040000C94AE020C9485000C947C020C94560225
:100050000C9485000C9485000C9485000C9485000C
:100060000C9485000C94850000000008000201003B
:100070000003040700000000000000000000000072
:10008000250028002B0000000000240027002A0083
:10009000040404040404040402020202020203032E
:1000A0000303030301020408102040800102040836
:1000B0001020010204081020B40311241FBECFEF4A
:1000C000D8E0DEBFCDBF11E0A0E0B1E0E8E2FDE0A6
:1000D00002C005900D92AA32B107D9F721E0AAE239
:1000E000B1E001C01D92AD3FB207E1F710E0CDE5F0
:1000F000D0E004C02197FE010E948C06CC35D107C8
:10010000C9F70E9411040C9492060C940000AF925F
:10011000BF92CF92DF92EF92FF920F931F93CF93F4
:10012000DF936C017B018B01040F151FEB015E0156
:10013000AE18BF08C017D10759F06991D601ED91EB
:10014000FC910190F081E02DC6010995892B79F78A
:10015000C501DF91CF911F910F91FF90EF90DF903C
:10016000CF90BF90AF900895FC01538D448D252F03
:1001700030E0842F90E0821B930B541710F0CF9641
:10018000089501970895FC01918D828D981761F073
:10019000A28DAE0FBF2FB11D5D968C91928D9F5F8A
:1001A0009F73928F90E008958FEF9FEF0895FC0169
:1001B000918D828D981731F0828DE80FF11D858D1C
:1001C00090E008958FEF9FEF0895FC01918D228DAF
:1001D000892F90E0805C9F4F821B91098F73992734
:1001E000089588E391E00E94E50021E0892B09F45D
:1001F00020E0822F089580E090E0892B29F00E9472
:10020000F10081110C9400000895FC01A48DA80F49
:10021000B92FB11DA35ABF4F2C91848D90E0019648
:100220008F739927848FA689B7892C93A089B18968
:100230008C91837080648C93938D848D981306C009
:100240000288F389E02D80818F7D80830895EF926D
:10025000FF920F931F93CF93DF93EC0181E0888F80
:100260009B8D8C8D98131AC0E889F989808185FF50
:1002700015C09FB7F894EE89FF896083E889F989F2
:1002800080818370806480839FBF81E090E0DF91F4
:10029000CF911F910F91FF90EF900895F62E0B8D47
:1002A00010E00F5F1F4F0F731127E02E8C8D8E1102
:1002B0000CC00FB607FCFACFE889F989808185FF69
:1002C000F5CFCE010E940501F1CFEB8DEC0FFD2F94
:1002D000F11DE35AFF4FF0829FB7F8940B8FEA8924
:1002E000FB8980818062CFCFCF93DF93EC01888D33
:1002F0008823B9F0AA89BB89E889F9898C9185FDA1
:1003000003C0808186FD0DC00FB607FCF7CF8C912E
:1003100085FFF2CF808185FFEDCFCE010E940501E0
:10032000E9CFDF91CF91089590E0FC01E859FF4FAC
:100330002491FC01EC55FF4F3491FC01E057FF4F35
:10034000E491EE23C9F0222339F0233001F1A8F41F
:10035000213019F1223029F1F0E0EE0FFF1FE458AF
:10036000FF4FA591B4918FB7F894EC91611126C01D
:1003700030953E233C938FBF08952730A9F0283055
:10038000C9F0243049F7809180008F7D03C08091AF
:1003900080008F7780938000DFCF84B58F7784BD16
:1003A000DBCF84B58F7DFBCF8091B0008F778093BA
:1003B000B000D2CF8091B0008F7DF9CF3E2BDACF45
:1003C0003FB7F8948091300190913101A0913201B2
:1003D000B091330126B5A89B05C02F3F19F00196B7
:1003E000A11DB11D3FBFBA2FA92F982F8827BC018F
:1003F000CD01620F711D811D911D42E0660F771FB7
:10040000881F991F4A95D1F70895FC01019000209B
:10041000E9F73197AF01481B590BBC0188E391E024
:100420000C9487008F929F92AF92BF920F931F936D
:10043000CF93DF93CDB7DEB7A1970FB6F894DEBFA9
:100440000FBECDBF19A2423008F44AE08E010F5D05
:100450001F4F842E912CB12CA12CA50194010E9438
:100460004806E62FB901CA01EA30F4F4E05DD8018C
:10047000EE938D01232B242B252B79F790E080E040
:10048000109719F0CD010E940502A1960FB6F894BD
:10049000DEBF0FBECDBFDF91CF911F910F91BF90F7
:1004A000AF909F908F900895E95CE1CF1F920F92DB
:1004B0000FB60F9211242F933F934F935F936F9337
:1004C0007F938F939F93AF93BF93EF93FF9388E3B3
:1004D00091E00E940501FF91EF91BF91AF919F9133
:1004E0008F917F916F915F914F913F912F910F90DD
:1004F0000FBE0F901F9018951F920F920FB60F927C
:1005000011242F938F939F93EF93FF93E0914801D2
:10051000F09149018081E0914E01F0914F0182FDFF
:100520001BC09081809151018F5F8F732091520188
:10053000821741F0E0915101F0E0E85CFE4F958FA9
:1005400080935101FF91EF919F918F912F910F9087
:100550000FBE0F901F9018958081F4CF1F920F92BD
:100560000FB60F9211242F933F938F939F93AF93C6
:10057000BF9380912C0190912D01A0912E01B091FB
:100580002F0130912B0123E0230F2D3758F50196D1
:10059000A11DB11D20932B0180932C0190932D015F
:1005A000A0932E01B0932F018091300190913101E1
:1005B000A0913201B09133010196A11DB11D80932C
:1005C000300190933101A0933201B0933301BF9178
:1005D000AF919F918F913F912F910F900FBE0F90F0
:1005E0001F90189526E8230F0296A11DB11DD2CFAA
:1005F0001F920F920FB60F9211242F933F934F9398
:100600005F936F937F938F939F93AF93BF93CF939A
:10061000DF93EF93FF9380912A01C091F901D0E01D
:1006200087FF24C0109285001092840080912A01D7
:100630008F5F80932A0180912A01082E000C990B6C
:100640008C179D0724F480912A018C30C4F180918D
:10065000840090918500049680349C4908F47AC007
:100660008091840090918500049676C080912A0143
:10067000082E000C990B8C179D07C4F6E0912A01F7
:100680008E2FEE0F990BFC01EE0FFF1FE80FF91FE5
:10069000EB52FE4F808186FFC9CFE0912A018E2F59
:1006A000EE0F990BFC01EE0FFF1FE80FF91FEB5245
:1006B000FE4F808160E08F730E949401B7CF20913C
:1006C000840030918500E0912A018E2FEE0F990B66
:1006D000FC01EE0FFF1FE80FF91FEB52FE4F818167
:1006E0009281820F931F9093890080938800E091FC
:1006F0002A018E2FEE0F990BFC01EE0FFF1FE80F62
:10070000F91FEB52FE4F808186FF11C0E0912A0154
:100710008E2FEE0F990BFC01EE0FFF1FE80FF91F54
:10072000EB52FE4F808161E08F730E949401FF9134
:10073000EF91DF91CF91BF91AF919F918F917F9179
:100740006F915F914F913F912F910F900FBE0F903E
:100750001F90189580E49CE990938900809388000D
:100760008FEF80932A01E3CF10923B0110923A0160
:1007700088EE93E0A0E0B0E080933C0190933D01CF
:10078000A0933E01B0933F0184E091E09093390142
:100790008093380185EC90E090934501809344016B
:1007A00084EC90E0909347018093460180EC90E0C8
:1007B000909349018093480181EC90E090934B0124
:1007C00080934A0182EC90E090934D0180934C011C
:1007D00086EC90E090934F0180934E01109251016E
:1007E0001092520110925301109254018091F9011C
:1007F0008C3098F491E0980F9093F9018093FA016E
:1008000090E0FC01EE0FFF1FE80FF91FEB52FE4FC7
:1008100088EB9BE09283818308958FEF8093FA01A8
:100820000895789484B5826084BD84B5816084BD68
:1008300085B5826085BD85B5816085BD80916E007E
:10084000816080936E0010928100809181008260AF
:1008500080938100809181008160809381008091EC
:1008600080008160809380008091B10084608093DB
:10087000B1008091B00081608093B00080917A00D7
:10088000846080937A0080917A00826080937A00FD
:1008900080917A00816080937A0080917A008068EC
:1008A00080937A001092C1008091FA018C3008F098
:1008B00068C0EDEAF0E02491E9E9F0E08491882352
:1008C00099F090E0880F991FFC01EA57FF4FA5911E
:1008D000B491FC01E458FF4F859194918FB7F8943F
:1008E000EC91E22BEC938FBF8091FA01282F30E03E
:1008F000F901EE0FFF1FE20FF31FEB52FE4F908145
:10090000907C996090831092FB011092FC012CE086
:10091000622F0E947906829FB001112430E020E00E
:10092000AB01420F531FFA01EE0FFF1FE40FF51F3B
:10093000EB52FE4F908196FD16C02F5F3F4F2C303B
:10094000310571F781110FC01092800082E0809311
:1009500081001092850010928400B19A80916F00FE
:10096000826080936F00E091FA018E2F90E0FC018D
:10097000EE0FFF1FE80FF91FEB52FE4F80818064DE
:100980008083E0914801F091490182E08083E09109
:100990004401F09145011082E0914601F091470138
:1009A00080E1808310925001E0914C01F0914D0163
:1009B00086E08083E0914A01F0914B018081806163
:1009C0008083E0914A01F0914B01808188608083AF
:1009D000E0914A01F0914B01808180688083E09131
:1009E0004A01F0914B0180818F7D808308E810E0FF
:1009F000C8E5D2E024EB422E512C612C712C30E062
:100A0000232E30E0332E20E420937C0080917A0066
:100A1000806480937A0080917A0086FDFCCF90916B
:100A2000780080917900892798278927909337014A
:100A30008093360182E191E00E940502C090360168
:100A4000D09037010D2C000CEE08FF084AE0C701DA
:100A5000B601F7FE0DC06DE288E391E00E94270128
:100A600066277727CB016C197D098E099F094AE01B
:100A70000E9412028EE191E00E940502A0913601CF
:100A8000B091370123EB30E00E9485062FEF33E071
:100A900040E050E00E941606309335012093340167
:100AA00081E291E00E940502C0903401D0903501AE
:100AB0000D2C000CEE08FF084AE0C701B601F7FE56
:100AC0000DC06DE288E391E00E9427016627772739
:100AD000CB016C197D098E099F094AE00E94120220
:100AE0008EE191E00E940502A0913401B0913501A0
:100AF000A03232E0B307B4F58091FB016801C81A57
:100B0000D10887FDD394CC0CDD1CCC0CDD1C0D2C46
:100B1000000CEE08FF088091FC019E01281B3109A2
:100B200087FD3395220F331F220F331F032E000C36
:100B3000440B550B2C193D094E095F09A53BB10526
:100B400014F0A4EBB0E0B7FF02C0B0E0A0E00E9458
:100B50004006A30192010E941606C20ED31EE41E97
:100B6000F51ED6014091FA014C3080F58091FB01D1
:100B70009801281B310987FD3395C901880F991FFA
:100B8000880F991FA817B90784F08091FC019E0176
:100B9000281B310987FD3395C901880F991F880FDC
:100BA000991FA817B9070CF4CD010297880F991F58
:100BB0006FB7F89450E09A01220F331F240F351FAE
:100BC000F901EB52FE4F928381836FBF0E94E001D7
:100BD0004B015C018FE0C82ED12CE12CF12C0E943E
:100BE000E001681979098A099B09683E734081050B
:100BF0009105A8F331E0C31AD108E108F10888EEA5
:100C0000880E83E0981EA11CB11CC114D104E1041C
:100C1000F10429F72114310409F4F5CE0E94F10002
:100C2000882309F4F0CE0E940000EDCE052E97FB3C
:100C30001EF400940E942D0657FD07D00E9448061E
:100C400007FC03D04EF40C942D065095409530953A
:100C500021953F4F4F4F5F4F089590958095709528
:100C600061957F4F8F4F9F4F08950E946A06A59F01
:100C7000900DB49F900DA49F800D911D1124089597
:100C8000B7FF0C9435060E943506821B930B08951E
:100C9000A1E21A2EAA1BBB1BFD010DC0AA1FBB1F80
:100CA000EE1FFF1FA217B307E407F50720F0A21BF2
:100CB000B30BE40BF50B661F771F881F991F1A945F
:100CC00069F760957095809590959B01AC01BD0189
:100CD000CF010895A29FB001B39FC001A39F700DE3
:100CE000811D1124911DB29F700D811D1124911D34
:100CF0000895991B79E004C0991F961708F0961B78
:100D0000881F7A95C9F7809508950E946A06B7FFF3
:100D10000895821B930B0895EE0FFF1F0590F49129
:080D2000E02D0994F894FFCFC7
:100D28000000000027018700B4007401E500C3003B
:100D3800D700506F742056616C75653A20000D0A13
:0A0D480000416E676C653A20000060
:00000001FF
